:100000000C94CB120C94FC120C94FC120C94FC1269
:100010000C94FC120C94FC120C94FC120C94FC1228
:100020000C94FC120C9493B70C9489B70C9425B7DC
:100030000C94FC120C94FC120C94FC120C94FC1208
:100040000C94FC120C949C910C94FC120C94FC12D9
:100050000C94FC120C94FC120C9453AF0C94599A0F
:100060000C94FC120C94465D0C94FC120C94FC1243
:100070000C94FC120C94FC120C94FC120C94FC12C8
:100080000C94FC120C94FC120C94FC120C94FC12B8
:100090000C94385D0C94FC120C94FC120C94FC1221
:1000A0000C94FC120C94FC120C94FC120C94FC1298
:1000B0000C94FC120C94FC120C94FC120C94FC1288
:1000C0000C94FC120C94FC120C94FC120C94A39A49
:1000D0000C94FC120C94FC120C942A5D0C94FC12EF
:1000E0000C94FC1268499C4B9D4DF04F9E4FB44FB1
:1000F0008D4F8D4FF04FF04FF04FF04FF04FF04FCE
:10010000F04FF04FD54F74497C497F49824985496A
:100110008E499149F04F9749A049A449AC49BE493D
:10012000C349ED49FD49F04FF04FF04F1A4A1F4ABD
:10013000374AF04F484A634A684A734A7A4A834AC0
:10014000CC4AF04FF04FF04FF04FF04F234B2D4B78
:100150003A4B444B4F4B594B644B6E4BF04FF04F67
:10016000F04FF04FF04FF04F794B9449844B8E4B4A
:10017000894C8C4C934CA24CD34C134D2A4DD698A1
:10018000D998C898CC98D2981099DD98E198E798BA
:10019000EB98EF98F598F998FD98109903990799BD
:1001A0000B9975997A997F99899993990C9A9D9948
:1001B000A599AD99B799C199CB99DA99E4990C9A17
:1001C000EE99F899029A084AD73B3BCE016E84BC5F
:1001D000BFFDC12F3D6C74319ABD56833DDA3D00A1
:1001E000C77F11BED9E4BB4C3E916BAAAABE0000EA
:1001F00000803F05A84CCDB2D44EB93836A9020CC8
:1002000050B9918688083CA6AAAA2ABE00000080A0
:100210003F00434F4D4D554E49434154494F4E00C9
:1002200044525952554E004552524F525300494E76
:10023000464F004543484F0047322F473320626105
:100240006420706172616D65746572730A00205A72
:100250003A200020593A200042656420583A200094
:10026000456E642066696C65206C6973740A00428F
:100270006567696E2066696C65206C6973740A0035
:100280005344207072696E74696E67206279746578
:1002900020004E6F74205344207072696E74696E32
:1002A000670A0046696C652064656C657465643A2C
:1002B0000044656C6574696F6E206661696C656485
:1002C0002C2046696C653A20006F70656E2066616F
:1002D000696C65642C2046696C653A200025697359
:1002E0000025696D20256973002569682025696DE1
:1002F0002025697300256964202569682025696DBA
:10030000202569730025697920256964202569689D
:100310002025696D20256973005072696E74207400
:10032000696D653A200050726F746563746564206E
:1003300050696E0A0033022E022702200212026F59
:1003400066660044454255473A004B494C4C45448B
:100350002E20004D3131332053006F6B004361700C
:100360003A454D455247454E43595F5041525345DA
:10037000523A300A004361703A434153455F4C4959
:100380004748545F4252494748544E4553533A30C8
:100390000A004361703A544F47474C455F4C494708
:1003A0004854533A300A004361703A534F46545709
:1003B0004152455F504F5745523A300A00436170F1
:1003C0003A4C4556454C494E475F444154413A31B9
:1003D0000A004361703A5A5F50524F42453A310A1F
:1003E000004361703A4155544F4C4556454C3A31A3
:1003F0000A004361703A5052494E545F4A4F423AA4
:10040000310A004361703A50524F47524553533AB4
:10041000300A004361703A4155544F5245504F5293
:10042000545F54454D503A310A004361703A454596
:1004300050524F4D3A310A004649524D57415245AC
:100440005F4E414D453A4D61726C696E20312E31DF
:100450002E3420284769746875622920534F5552FD
:1004600043455F434F44455F55524C3A687474703E
:10047000733A2F2F6769746875622E636F6D2F4D05
:1004800061726C696E4669726D776172652F4D613C
:10049000726C696E2050524F544F434F4C5F56451B
:1004A0005253494F4E3A312E30204D414348494E28
:1004B000455F545950453A4933504C55532045589F
:1004C0005452554445525F434F554E543A3120558E
:1004D0005549443A63656465326132662D34316151
:1004E000322D343734382D396231322D633535634E
:1004F00036326633363766660A002F2F20007A5F61
:100500006D696E3A2000795F6D696E3A2000785F00
:100510006D696E3A20005265706F7274696E672063
:10052000656E6473746F70207374617475730A0000
:1005300053657474696E672054726176656C2041EE
:100540006363656C65726174696F6E3A2000536510
:100550007474696E672052657472616374204163BC
:1005600063656C65726174696F6E3A2000536574DF
:1005700074696E67205072696E7420416363656CA4
:1005800065726174696F6E3A200053657474696EA8
:1005900067205072696E7420616E642054726176B7
:1005A000656C20416363656C65726174696F6E3A56
:1005B0002000205A00205900580020204D61783A30
:1005C0002000205A00205900580020204D696E3A22
:1005D00020004F6E20004F666600536F66742065E2
:1005E0006E6473746F70733A200000013D3E3C36B8
:1005F000FF40410218FF43454206FFFFFF0305FF8E
:10060000FFFF3A3B39FFFF034404FF37FFFFFFFFC3
:10061000FFFF20643A0020693A0020703A0023640A
:100620006566696E65202044454641554C545F4BD4
:1006300064200023646566696E6520204445464158
:10064000554C545F4B69200023646566696E6520D4
:100650002044454641554C545F4B7020005049445E
:10066000204175746F74756E652066696E69736874
:100670006564212050757420746865206C61737402
:10068000204B702C204B6920616E64204B642063EA
:100690006F6E7374616E74732066726F6D20626525
:1006A0006C6F7720696E746F20436F6E6669677533
:1006B000726174696F6E2E680A005049442041755A
:1006C000746F74756E65206661696C656421207451
:1006D000696D656F757400504944204175746F747D
:1006E000756E65206661696C6564212074696D654D
:1006F0006F75740A00504944204175746F74756EAB
:1007000065206661696C6564212054656D70657251
:10071000617475726520746F6F2068696768005036
:100720004944204175746F74756E65206661696C0B
:100730006564212054656D70657261747572652001
:10074000746F6F20686967680A00204B643A200064
:10075000204B693A2000204B703A20000A20436C5D
:10076000617373696320504944200A002054753A2C
:100770002000204B753A2000206D61783A2000203F
:100780006D696E3A200020643A200020626961732E
:100790003A2000426564204C6576656C696E67207E
:1007A000004661696C656420746F20656E61626CDF
:1007B0006520426564204C6576656C696E670A0049
:1007C000426564204C6576656C20436F7272656388
:1007D00074696F6E204D61747269783A0000000090
:1007E000000000000000000000546F6F206661727E
:1007F0002066726F6D207265666572656E63652036
:10080000706F696E740A0020417072203136203298
:100810003031382031303A35373A35380064657632
:10082000656C6F00706572202D592E00532E5A2E64
:10083000004E6F2063617365206C696768740A00FD
:10084000556E6B6E6F776E20636F6D6D616E643A7F
:100850002022002066697273740A005A00590058F9
:1008600000486F6D6520004D617274726978207365
:10087000617665206F6B2E0A000A0A426564204C7F
:100880006576656C20436F7272656374696F6E2064
:100890004D61747269783A00202B000A436F7272BE
:1008A000656374656420426564204865696768749F
:1008B0002076732E2042656420546F706F6C6F67D2
:1008C000793A0A00202B000A42656420486569676E
:1008D000687420546F706F6772617068793A0A208B
:1008E00020202B2D2D2D204241434B202D2D2B0A36
:1008F0002020207C20202020202020202020207C40
:100900000A204C207C20202020282B292020202059
:100910007C20520A2045207C2020202020202020DE
:100920002020207C20490A2046207C20282D2920B8
:100930004E20282B29207C20470A2054207C202070
:100940002020202020202020207C20480A20202039
:100950007C20202020282D29202020207C20540AA3
:100960002020207C20202020202020202020207CCF
:100970000A2020204F2D2D2046524F4E54202D2D41
:100980002B0A2028302C30290A004D65616E206F1B
:10099000662073616D706C656420706F696E74732E
:1009A0003A200020643A200020623A200045716E0F
:1009B00020636F656666696369656E74733A20616A
:1009C0003A200052756E6E696E6720696E2044523F
:1009D000592D52554E206D6F64650A0047323920FB
:1009E0004175746F20426564204C6576656C696E54
:1009F000670A0028422961636B00284629726F6EDE
:100A000074002852296967687400284C2965667447
:100A1000003F4E756D626572206F662070726F6266
:100A20006520706F696E747320697320696D706CD6
:100A300061757369626C65202832206D696E696D1D
:100A4000756D292E0A003F2856296572626F7365FD
:100A5000206C6576656C20697320696D706C6175BA
:100A60007369626C652028302D34292E0A005344A6
:100A700020636172642072656D6F7665642E005329
:100A80004420636172642072656D6F7665642E0028
:100A90005344206361726420696E73657274656487
:100AA0002E005344206361726420696E7365727412
:100AB00065642E005061676520746F004D353030DD
:100AC000004732380047323900473238000A4C6557
:100AD00076656C696E6720697320696E2070726F2D
:100AE00067726573732E004D393939206F6B2E0A8A
:100AF0000047323820583020593000473238205AC9
:100B00003000473238205930004732382058300002
:100B10004732380020646174613A00204164647295
:100B20003A006C656E3A00556E6B6E6F776E2E00F4
:100B30004D35303000656E7175657565696E67207D
:100B400022004E6F204C696E65204E756D62657295
:100B5000207769746820636865636B73756D2C20FA
:100B60004C617374204C696E653A20004B494C4CC3
:100B700045442E20005072696E7465722073746F44
:100B8000707065642064756520746F206572726F83
:100B900072732E2046697820746865206572726FC2
:100BA0007220616E6420757365204D393939207467
:100BB0006F20726573746172742E202854656D7095
:100BC00065726174757265206973207265736574EE
:100BD0002E205365742069742061667465722072DA
:100BE000657374617274696E67290A004E6F2043E1
:100BF0006865636B73756D2077697468206C696EC6
:100C000065206E756D6265722C204C617374204C8A
:100C1000696E653A2000636865636B73756D206D5E
:100C200069736D617463682C204C617374204C6926
:100C30006E653A20004C696E65204E756D62657276
:100C4000206973206E6F74204C617374204C696E40
:100C500065204E756D6265722B312C204C6173746A
:100C6000204C696E653A20004D313130004D3331F2
:100C7000004D383420582059205A20450053442034
:100C800072656164206572726F720A00446F6E65EE
:100C9000207072696E74696E672066696C650A00FF
:100CA00020496E76616C696420657874727564653C
:100CB00072200000000000000000000000000000A2
:100CC000009643000096430000C84320706F73698C
:100CD00074696F6E206F7574206F662072616E6725
:100CE000652E0A003F50726F6265200000002200EE
:100CF000250028002B002E003100340002010000E6
:100D0000050108010B010000200023002600290036
:100D10002C002F0032000001000003010601090130
:100D200005050505070508080808020202020A0A67
:100D30000808040404040101010101010101030385
:100D4000030303030303040707070C0C0C0C0C0C30
:100D50000C0C0202020206060606060606060B0B2D
:100D60000B0B0B0B0B0B010210202008081020406E
:100D7000102040800201020108040201010204085F
:100D800010204080804020100804020180040201ED
:100D90008040201008040201080402010102040836
:100DA00010204080010204081020408000000A0B3F
:100DB00002090C0D0E0807030401000000000000EA
:100DC0000000000000000000000000000000000023
:100DD00000000000000000001211100000000000E0
:100DE0000000000000000000000000000000000003
:100DF00000004B494C4C45442E2000202D20496ECC
:100E000076616C6964206578747275646572206EB1
:100E1000756D626572202100202D20496E76616C0F
:100E20006964206578747275646572206E756D6290
:100E3000657220210A002020506C616E6E6572423E
:100E4000756666657242797465733A200020467251
:100E50006565204D656D6F72793A2000436F6D7046
:100E6000696C65643A20417072203136203230312D
:100E7000380A00207C20417574686F723A20286E11
:100E80006F6E652C2064656661756C7420636F6E8F
:100E9000666967290A00323031372D30372D3034FA
:100EA0002031323A303000204C6173742055706428
:100EB000617465643A2000312E312E340A004D6190
:100EC000726C696E0020536F667477617265205290
:100ED000657365740A00205761746368646F6720E6
:100EE00052657365740A002042726F776E206F75C9
:100EF000742052657365740A002045787465726EBB
:100F0000616C2052657365740A00506F7765725585
:100F1000700A0073746172740A006572726F7220D5
:100F200077726974696E6720746F2066696C650AF0
:100F300000205A3A0020593A0020583A00656E6461
:100F400073746F7073206869743A200053544F5063
:100F5000207072696E74696E670A004D6F76652045
:100F600061776179204F4B2E0A004D6F76652061C5
:100F7000776179205820592E0A004D6F76652061DF
:100F800077617920582C592E2E2E00537973746571
:100F90006D2073746F7020666F722073687574644F
:100FA0006F776E2E00446F6E6520736176696E6791
:100FB0002066696C652E0A004D3239002028636175
:100FC0006C63756C6174656429210A0020213D20E1
:100FD00000454550524F4D20435243206D69736D7B
:100FE00061746368202D202873746F7265642920F2
:100FF00000290A002062797465733B2063726320C4
:10100000002073746F7265642073657474696E6711
:101010007320726574726965766564202800204DBE
:1010200061726C696E3D563435290A002845455079
:10103000524F4D3D00454550524F4D2076657273DD
:10104000696F6E206D69736D61746368200048611B
:101050007264636F6465642044656661756C7420B6
:1010600053657474696E6773204C6F616465640ABC
:1010700000E8030000E803000064000000F4010041
:10108000000000FA430000FA430000A0400000C83E
:10109000410000A2420000A2420040C8439A99BC0D
:1010A0004220204D383531205A005A2D50726F623F
:1010B00065204F666673657420286D6D293A0A00B5
:1010C00020440020490020204D3330312050005072
:1010D00049442073657474696E67733A0A00204648
:1010E0000020420020480020204D3134352053009C
:1010F0004D6174657269616C2068656174757020FA
:10110000706172616D65746572733A0A0020204DDA
:101110003432302053004175746F20426564204C96
:101120006576656C696E673A0A00205A002059009E
:1011300020204D323036205800486F6D65206F6694
:10114000667365743A0A00204500205A0020590051
:1011500020580020420020540020204D32303520FD
:101160005300416476616E6365643A20533C6D6957
:101170006E5F66656564726174653E20543C6D699E
:101180006E5F74726176656C5F66656564726174CA
:10119000653E20423C6D696E5F7365676D656E7478
:1011A0005F74696D655F6D733E20583C6D61785F5B
:1011B00078795F6A65726B3E205A3C6D61785F7A20
:1011C0005F6A65726B3E20453C6D61785F655F6A62
:1011D00065726B3E0A0020540020520020204D32E0
:1011E0003034205000416363656C65726174696FCF
:1011F0006E2028756E6974732F7332293A20503C23
:101200007072696E745F616363656C3E20523C72FC
:101210006574726163745F616363656C3E20543C06
:1012200074726176656C5F616363656C3E0A002071
:101230004500205A0020590020204D3230312058DE
:10124000004D6178696D756D20416363656C6572F1
:101250006174696F6E2028756E6974732F733229FB
:101260003A0A00204500205A0020590020204D3223
:1012700030332058004D6178696D756D2066656565
:101280006472617465732028756E6974732F732995
:101290003A0A00204500205A0020590020204D39EC
:1012A0003220580053746570732070657220756E1B
:1012B00069743A0A0020204D3230302044300A0050
:1012C00020204D3230302044002044697361626C2C
:1012D00065640A0046696C616D656E74207365749F
:1012E00074696E67733A0020204D313439204320F1
:1012F0003B20556E69747320696E2043656C736979
:1013000075730A002020473231202020203B2055D1
:101310006E69747320696E206D6D0A00FFFFFF7C9B
:101320003C3E5E2B3D3F2F5B5D3B2C2A225C004DFB
:101330003234004D3233202573006175746F256996
:101340002E670053442063617264206F6B0A006F44
:1013500070656E526F6F74206661696C65640A0017
:10136000766F6C756D652E696E6974206661696C47
:1013700065640A00534420696E6974206661696C73
:101380000A0057726974696E6720746F2066696C11
:10139000653A20006F70656E206661696C65642C2B
:1013A0002046696C653A20006F70656E2066616941
:1013B0006C65642C2046696C653A200046696C6552
:1013C0002073656C65637465640A002053697A65EF
:1013D0003A200046696C65206F70656E65643A203E
:1013E000006F70656E206661696C65642C204669CB
:1013F0006C653A20002066696C653A20004E6F7774
:1014000020002220706F73002220706172656E745C
:101410003A2200535542524F5554494E45204341BC
:101420004C4C207461726765743A22004B494C4CF5
:1014300045442E2000547279696E6720746F2063D2
:10144000616C6C207375622D67636F6465206669DB
:101450006C6573207769746820746F6F206D616E9E
:1014600079206C6576656C732E00747279696E678D
:1014700020746F2063616C6C207375622D67636FDD
:1014800064652066696C6573207769746820746F81
:101490006F206D616E79206C6576656C732E204DC2
:1014A0004158206C6576656C2069733A004572720C
:1014B0006F723A004572726F722077726974696E4A
:1014C0006720746F20454550524F4D210A00290A6C
:1014D000002062797465733B20637263200053655A
:1014E0007474696E67732053746F7265642028008A
:1014F00024F4D43050C38E20C2A24017828B7011C6
:10150000127A910D816CD90AA861E108C758660763
:10151000615143061E4B5D05C145A7041A411104E4
:10152000093D9803713931034036DB02653391027E
:10153000D4305402802E1D02632CEE01752AC501A1
:10154000B028A001102781018F2564012B244B01B5
:10155000E0223401AC211F018D200D01801FFC0011
:10156000841EED00971DDF00B81CD200E61BC600EC
:10157000201BBC00641AB200B219A8000A19A0000E
:101580006A189900D117910040178B00B516840096
:1015900031167E00B31579003A157300C7146F0039
:1015A00058146A00EE1366008813630025135E006A
:1015B000C7125B006C12570015125400C111510084
:1015C00070114F0021114B00D61049008D104700BB
:1015D0004610440002104200C00F4000800F3E0041
:1015E000420F3C00060F3B00CB0E3800930E370035
:1015F0005C0E3500270E3400F30D3200C10D3100B2
:10160000900D3000600D2E00320D2D00050D2C00C8
:10161000D90C2B00AE0C2900850C29005C0C27008E
:10162000350C27000E0C2600E80B2400C40B240008
:10163000A00B23007D0B23005A0B2100390B210046
:10164000180B2000F80A1F00D90A1E00BB0A1E0052
:101650009D0A1D00800A1D00630A1C00470A1B002A
:101660002C0A1B00110A1A00F7091A00DD091900DB
:10167000C4091900AB091900920917007B09180069
:10168000630917004C0916003609160020091600D8
:101690000A091500F5081500E0081400CC0814002C
:1016A000B8081400A4081400900813007D08120064
:1016B0006B08130058081200460812003408110085
:1016C000230811001208110001081100F007100092
:1016D000E0071000D0071000C0071000B0070F008F
:1016E000A107100091070E0083070F0074070F0079
:1016F00065070E0057070E0049070E003B070D0057
:101700002E070E0020070D0013070D0006070D0021
:10171000F9060C00ED060D00E0060C00D4060C00E6
:10172000C8060C00BC060C00B0060C00A4060B009A
:1017300099060C008D060B0082060B0077060B0045
:101740006C060B0061060A0057060B004C060A00E7
:1017500042060A0038060A002E060A0024060A007D
:101760001A060A001006090007060A00FD0509000E
:10177000F4050900EB050900E2050900D905090097
:10178000D0050900C7050900BE050900B505080018
:10179000AD050800A50509009C0508009405080092
:1017A0008C050800840508007C0508007405080005
:1017B0006C050700650508005D0507005605080073
:1017C0004E050700470507004005080038050700DB
:1017D000310507002A050700230507001C05060040
:1017E000160507000F05070008050600020507009B
:1017F000FB040600F5040700EE040600E8040600FA
:10180000E2040700DB040600D5040600CF0406004E
:10181000C9040600C3040600BD040600B7040600A0
:10182000B1040500AC040600A6040600A0040500EF
:101830009B04060095040500900406008A04050038
:1018400085040500800406007A040500750405007F
:10185000700405006B0405006604050061040500C2
:101860005C04050057040500520405004D04050002
:1018700048040500430405003E0404003A04050042
:1018800035040500300404002C040500270404007E
:10189000230405001E0404001A04040016040500B5
:1018A000110404000D0404000904050004040400EC
:1018B00000040400FC030400F8030400F403040023
:1018C000F0030400EC030400E8030400E403040054
:1018D000E0030400DC030400D8030400D403040084
:1018E000D0030400CC030400C8030300C5030300B5
:1018F00024F404D9201BC40C5C0E9804C4095F02B4
:1019000065077101F405F900FB04B3004804870082
:10191000C10369005803550003034500BE023A00A5
:101920008402310053022A0029022500040220000B
:10193000E4011C00C8011900AF0117009801140050
:1019400084011300710110006101100051010E00AB
:1019500043010D0036010B002B010B0020010B0091
:10196000150109000C01090003010800FB00080033
:10197000F3000800EB000700E4000600DE000600AC
:10198000D8000600D2000600CC000500C700050004
:10199000C2000500BD000400B9000400B500040049
:1019A000B1000400AD000400A9000400A50003007C
:1019B000A20003009F0004009B00030098000300A6
:1019C0009500020093000300900003008D000200C8
:1019D0008B000300880002008600020084000300E0
:1019E000810002007F0002007D0002007B000200F7
:1019F0007900020077000100760002007400020006
:101A000072000100710002006F0002006D00010011
:101A10006C0002006A00010069000200670001001A
:101A20006600010065000100640002006200010020
:101A300061000100600001005F0002005D00010024
:101A40005C0001005B0001005A0001005900010028
:101A50005800010057000100560001005500010028
:101A60005400010053000000530001005200010027
:101A700051000100500001004F0001004E00000025
:101A80004E0001004D0001004C0001004B00000021
:101A90004B0001004A00010049000100480000001D
:101AA0004800010047000100460000004600010018
:101AB0004500000045000100440001004300000013
:101AC000430001004200000042000100410000000C
:101AD00041000100400001003F0000003F00010004
:101AE0003E0000003E0001003D0000003D000100FE
:101AF0003C0000003C0000003C0001003B000000F6
:101B00003B0001003A0000003A00010039000000EB
:101B100039000100380000003800000038000100E2
:101B200037000000370001003600000036000000DA
:101B300036000100350000003500000035000100CE
:101B400034000000340000003400010033000000C5
:101B500033000000330001003200000032000000BA
:101B600032000100310000003100000031000100AE
:101B70003000000030000000300001002F000000A5
:101B80002F0000002F0000002F0001002E00000099
:101B90002E0000002E0001002D0000002D0000008E
:101BA0002D0000002D0001002C0000002C00000082
:101BB0002C0000002C0001002B0000002B00000076
:101BC0002B0000002B0001002A0000002A0000006A
:101BD0002A0000002A00010029000000290000005E
:101BE0002900000029000000290001002800000051
:101BF0002800000028000000280000002800010044
:101C00002700000027000000270000002700000038
:101C1000270001002600000026000000260000002A
:101C2000260000002600010025000000250000001D
:101C3000250000002500000025000000250001000F
:101C40002400000024000000240000002400000004
:101C500024000100230000002300000023000000F6
:101C600023000000230000002300000023000100E7
:101C700022000000220000002200000022000000DC
:101C800022000000220001002100000021000000CD
:101C900021000000210000002100000021000000C0
:101CA00021000100200000002000000020000000B2
:101CB00020000000200000002000000020000000A4
:101CC000200001001F0000001F0000001F00000096
:101CD0001F0000001F0000001F0000001F00010087
:101CE0001E0000001E0000001E0000001E0000007C
:101CF0004D383420582059205A20450045787472B8
:101D000075646500526573756D65000000210024DF
:101D10000027002A002D00300033000101000004DC
:101D20000107010A01416374697665204578747280
:101D3000756465723A20004D31313033206F6B2E5F
:101D40000A0053442072656164206572726F720AE2
:101D5000006D6F7665207A206178697320616E640A
:101D6000206520617869732E0A00536420696E69CA
:101D700074206661696C2120536F2063616E277443
:101D800020726573756D65207072696E742E0053D4
:101D90006420696E6974206661696C212E0A536F34
:101DA0002063616E277420726573756D6520707293
:101DB000696E742E004D31313031206F6B2D2D0046
:101DC0005461726765742066696C65206F70656E1A
:101DD000206661696C2E004E6F207072696E7420EF
:101DE0006E65656465642E004361726420696E6986
:101DF00074206661696C004D313130312066616953
:101E00006C20666F72206361726420696E69742051
:101E10006661696C2E0A005072696E7420636F6E81
:101E200074696E75652066726F6D206C61737420C5
:101E3000627265616B2E0A004E4F206E65656420EC
:101E4000746F20636F6E74696E756520746F207097
:101E500072696E742E0A004D313130322073746114
:101E60007475733A312046696C653A004D313130F2
:101E700032207374617475733A300A0043616E6E78
:101E80006F74206F70656E207375626469722000D4
:101E90006563686F3A00205A3A200020593A2000C2
:101EA00042656420583A2000426564206865617488
:101EB000206661696C2E0A53797374656D207374A2
:101EC0006F702E0045787472756465722068656164
:101ED00074206661696C2E0A53797374656D207382
:101EE000746F702E006265640A002C20737973741D
:101EF000656D2073746F707065642120486561742E
:101F000065725F49443A200070012C01900127015D
:101F1000B0012201C0011D01F001180110021301DE
:101F200030020E016002090190020401C002FF00AC
:101F30000003FA004003F5008003F000D003EB003B
:101F40002004E6007004E100E004DC004005D70056
:101F5000C005D2004006CD00D006C8008007C300EF
:101F60003008BE00F008B900C009B400B00AAF00E4
:101F7000B00BAA00D00CA500000EA000500F9B00D3
:101F8000C01096005012910000148C00C0158700FC
:101F9000B0178200B0197D00D01B7800001E7300BE
:101FA00040206E0090226900F024640040275F000A
:101FB00090295A00E02B5500102E500020304B0085
:101FC00010324600E033410090353C0010373700B6
:101FD00070383200A0392D00B03A2800A03B230011
:101FE000603C1E00103D1900903D1400103E0F0093
:101FF000703E0A00C03E0500003F0000403FFBFF6E
:10200000803FF6FFC03FF1FF4572723A204D494EC6
:1020100054454D5020424544004572723A204D4986
:102020004E54454D50004D494E54454D502074720C
:1020300069676765726564004572723A204D415860
:1020400054454D5020424544004572723A204D415E
:102050005854454D50004D415854454D50207472D0
:102060006967676572656400205A3A0020593A0032
:1020700020436F756E7420583A0020453A00205A6C
:102080003A0020593A00583A003A20007A5F6D69C8
:102090006E3A20202D3230207A5F6D61783A202010
:1020A0003230005A204F66667365742000504155E7
:1020B0005345205052494E5420444F4E450A004546
:1020C0005845204C434420494E53455254204649DC
:1020D0004C414D454E54320A00455845204C43442E
:1020E00020494E534552542046494C414D454E548B
:1020F000310A0020202046696C616D656E74207283
:10210000756E6F757434210A496E7365727420663A
:10211000696C616D656E7420616E642070726573A8
:102120007320627574746F6E20746F20636F6E74A9
:10213000696E75652E0A2057616974696E6720663D
:102140006F72206368616E67696E672066696C6193
:102150006D656E742E00090946696C616D656E745B
:102160002072756E6F757433210A57616974206629
:102170006F722066696C616D656E7420756E6C6F30
:1021800061642E00090946696C616D656E74207288
:10219000756E6F757432210A5761697420666F72AB
:1021A000207374617274206F662066696C616D655E
:1021B0006E74206368616E67652E00574149542034
:1021C000464F522052454C4F414420444F4E450A01
:1021D0000020202046696C616D656E742072756EFA
:1021E0006F757436210A496E736572742066696C66
:1021F000616D656E7420616E64207072657373200A
:10220000627574746F6E20746F20636F6E74696E84
:1022100075652E0A2057616974696E6720666F7252
:10222000206368616E67696E672066696C616D65C1
:102230006E742E00202020202046696C616D656E32
:10224000742072756E6F757435210A546865206E3E
:102250006F7A7A6C652068617320636F6F6C20649D
:102260006F776E2C707265737320627574746F6E05
:1022700020746F2072656865617420746865206ED3
:102280006F7A7A6C652E0045584520574149542095
:10229000464F522046494C414D454E542052454CE4
:1022A0004F41440A0020202046696C616D656E74C0
:1022B0002072756E6F75743131210A57616974200F
:1022C000666F72207072696E7420746F207265730D
:1022D000756D652E004348414E4745204F50544987
:1022E0004F4E533A0020202046696C616D656E7434
:1022F0002072756E6F757439210A57616974206692
:102300006F722066696C616D656E74206578747299
:102310007564652E0045584520524553554D45205E
:1023200057414954205741495420574149540A00C4
:1023300020202046696C616D656E742072756E6F29
:10234000757438210A5761697420666F7220666956
:102350006C616D656E74206C6F61642E00202020AE
:1023600046696C616D656E742072756E6F75743739
:10237000210A496E736572742066696C616D656EC1
:102380007420616E6420707265737320627574745A
:102390006F6E20746F20636F6E74696E75652E0AA0
:1023A0002057616974696E6720666F722063686187
:1023B0006E67696E672066696C616D656E742E006C
:1023C00045584520524553554D45205052494E548D
:1023D0000A00455845204D3630300A005265736575
:1023E0006E643A20006F6B00627573793A207061F9
:1023F0007573656420666F7220696E7075740A006B
:10240000627573793A2070617573656420666F72C6
:1024100020757365720A00627573793A2070726F65
:1024200063657373696E670A004B494C4C45442ED3
:1024300020004B696C6C2063617573656420627960
:1024400020746F6F206D75636820696E61637469B5
:1024500076652074696D652E004B494C4C20636194
:102460007573656420627920746F6F206D75636881
:1024700020696E6163746976652074696D65202DCD
:102480002063757272656E7420636F6D6D616E642A
:102490003A20005072696E7465722068616C7465D0
:1024A000642E206B696C6C28292063616C6C6564F8
:1024B000210A005361766520656E7669726F6E6DD4
:1024C000656E74204F4B2E2E2E005361766520656D
:1024D0006E7669726F6E6D656E74204F4B2E2E2E68
:1024E00000506F77657220627265616B210A00503F
:1024F0006F77657220627265616B21004D353030F7
:102500000000007042000070420000204200000005
:1025100000090946696C616D656E742072756E6F95
:10252000757431210A48656174696E67206E6F7A2F
:102530007A6C650A506C6561736520776169742EE9
:102540002E2E00202F002042403A0020403A00204A
:10255000573A0020573A004E414E494E4954594986
:102560004E46CDCCCC3D0AD7233C17B7D13877CCDB
:102570002B329595E6241FB14F0A00002041000040
:10258000C84200401C4620BCBE4CCA1B0E5AAEC5F9
:102590009D7410CFEFCE11241FBECFEFD1E2DEBF6E
:1025A000CDBF00E00CBF13E0A0E0B2E0ECE5FEEB35
:1025B00001E00BBF02C007900D92A638B107D9F712
:1025C00021E1A6E8B3E001C01D92A138B207E1F70E
:1025D00012E1CAECD2E100E006C021970109802F88
:1025E000FE010E94F7D1C93CD10780E00807A9F796
:1025F0000E9476C70C941CDF0C9400002F923F922F
:102600004F925F926F927F928F929F92AF92BF9202
:10261000CF92DF92EF92FF920F931F93CF93DF93AE
:10262000CDB7DEB7CF58D1090FB6F894DEBF0FBED5
:10263000CDBFE0911F0520E4E29FF0011124E15E8F
:10264000FB4F8081813091F4BF016F5F7F4F80E04D
:1026500090E0DB014D91BD019C012E5D3A4FD90107
:102660004C93019684309105A1F708C01092220581
:102670001092230510922405109225051082858161
:10268000181614F0809300028F010A5F1F4F80918B
:10269000260580FF1AC0E0E9FEE184917F01BFEFCB
:1026A000EB1AFB0A811102C0780104C00E94C257D4
:1026B000F701F3CFF70181917F01882319F00E9480
:1026C000C257F8CF8AE00E94C25781E090E0909311
:1026D000E9108093E810C8010E943BC280917611F6
:1026E0008D3411F40C94A11B843511F40C94952CA9
:1026F000873411F00C949A2C80917411909175117B
:102700008C31910509F47AC684F48430910544F43F
:10271000823091050CF084C097FF1FC00C94B42C3C
:10272000049709F42DC60C94B42C8A35910509F44C
:102730007AC74CF48D31910509F4EAC64E9709F435
:10274000EBC60C94B42C8B35910509F470C78C350D
:10275000910509F471C70C94B42C80910802882368
:1027600011F40C94B42C0E94EE568091010288233F
:1027700021F082E495E00E949F800E947F57209183
:1027800042053091430540914405509145056091C3
:10279000ED0F7091EE0F8091EF0F9091F00F0E946E
:1027A00006DB81111DC020914605309147054091FF
:1027B0004805509149056091F10F7091F20F809199
:1027C000F30F9091F40F0E9406DB811109C0609114
:1027D00060027091610280916202909163021AC05E
:1027E0006091350270913602072E000C880B990B10
:1027F0000E940CDB209160023091610240916202E4
:10280000509163020E946BDB2AE037ED43E25CE308
:102810000E946BDB0E94FB520E94F1520C94B42C7C
:1028200020910802222311F40C94B42C11E0029799
:1028300009F010E00E94EE5682E50E94E2568823DD
:1028400009F452C10E9480566B017C014090ED0F4B
:102850005090EE0F6090EF0F7090F00F2091F10FFD
:102860003091F20F4091F30F5091F40F2BAF3CAF2A
:102870004DAF5EAF8091420590914305A091440514
:10288000B091450523968CAF9DAFAEAFBFAF2397F8
:1028900020914605309147054091480550914905E2
:1028A0002B962CAF3DAF4EAF5FAF2B9720E030E0C3
:1028B000A901C701B6010E9406DB882309F446C5B9
:1028C000A301920123966CAD7DAD8EAD9FAD239794
:1028D0000E9406DB81110FC02BAD3CAD4DAD5EAD4E
:1028E0002B966CAD7DAD8EAD9FAD2B970E9406DB18
:1028F000882309F42BC520E030E0A901C701B60107
:102900000E9406DB881F8827881F18130BC080E0F1
:1029100090E0A0E8BFE367968CAF9DAFAEAFBFAFCE
:1029200067970AC020E030E040E85FEB67962CAF85
:102930003DAF4EAF5FAF6797A301920123966CAD99
:102940007DAD8EAD9FAD23970E94FFD12F966CAFCA
:102950007DAF8EAF9FAF2F972BAD3CAD4DAD5EAD34
:102960002B966CAD7DAD8EAD9FAD2B970E94FFD1A8
:1029700063966CAF7DAF8EAF9FAF63972F962CADF4
:102980003DAD4EAD5FAD2F97CA01B9010E946BDB23
:102990004B015C0163962CAD3DAD4EAD5FAD6397D1
:1029A000CA01B9010E946BDB9B01AC01C501B401F6
:1029B0000E9400D20E9492D427966CAF7DAF8EAF5A
:1029C0009FAF279720E030E040E05FE30E946BDBA1
:1029D0004B015C01A7019601C701B6010E946BDBA8
:1029E0006B017C01A5019401C501B4010E946BDB60
:1029F0009B01AC01C701B6010E94FFD10E9492D495
:102A00009B01AC0167966CAD7DAD8EAD9FAD6797B8
:102A10000E946BDB4B015C0123962CAD3DAD4EADAE
:102A20005FAD2397C301B2010E9400D220E030E0E5
:102A300040E05FE30E946BDB6B017C0163966CAD51
:102A40007DAD8EAD9FAD6397905827962CAD3DAD73
:102A50004EAD5FAD27970E94EDD29B01AC01C50141
:102A6000B4010E946BDB9B01AC01C701B6010E945F
:102A700000D2A30192010E94FFD16B017C012B9631
:102A80002CAD3DAD4EAD5FAD2B976BAD7CAD8DAD3F
:102A90009EAD0E9400D220E030E040E05FE30E9463
:102AA0006BDB2B013C0127962CAD3DAD4EAD5FADF0
:102AB00027972F966CAD7DAD8EAD9FAD2F970E9461
:102AC000EDD29B01AC01C501B4010E946BDB9B01FF
:102AD000AC01C301B2010E9400D22BAD3CAD4DADA3
:102AE0005EAD0E94FFD114C089E40E94E2568823A3
:102AF00029F00E9480566B017C0103C0C12CD12CAF
:102B000076018AE40E94E2568823F9F00E948056FA
:102B10002B966CAF7DAF8EAF9FAF2B9720E030E050
:102B2000A901C701B6010E9406DB81111EC020E089
:102B300030E0A9012B966CAD7DAD8EAD9FAD2B978E
:102B40000E9406DB811111C001C420E030E0A90120
:102B5000C701B6010E9406DB882309F4F7C32B9650
:102B60001CAE1DAE1EAE1FAE2B97D701C601B058CE
:102B70008BAF9CAFADAFBEAF2B962CAD3DAD4EAD88
:102B80005FAD2B97505823962CAF3DAF4EAF5FAF44
:102B900023979C01AD01BC01CD010E946BDB4B0171
:102BA0005C0123962CAD3DAD4EAD5FAD2397CA01C0
:102BB000B9010E946BDB9B01AC01C501B4010E940D
:102BC00000D20E9492D4A3966CAF7DAF8EAF9FAF20
:102BD000A3978091ED0F9091EE0FA091EF0FB09120
:102BE000F00F27968CAF9DAFAEAFBFAF2797A70171
:102BF0009601BC01CD010E9400D267966CAF7DAFFB
:102C00008EAF9FAF67972091F10F3091F20F4091F7
:102C1000F30F5091F40F2F962CAF3DAF4EAF5FAF37
:102C20002F972B962CAD3DAD4EAD5FAD2B972F96CC
:102C30006CAD7DAD8EAD9FAD2F970E9400D2AB964F
:102C40006CAF7DAF8EAF9FAFAB97809142059091F7
:102C50004305A0914405B09145056B968CAF9DAF9F
:102C6000AEAFBFAF6B9767962CAD3DAD4EAD5FADD0
:102C70006797BC01CD010E94FFD16B017C012091BF
:102C800046053091470540914805509149056F969A
:102C90002CAF3DAF4EAF5FAF6F97AB962CAD3DAD58
:102CA0004EAD5FADAB976F966CAD7DAD8EAD9FAD0C
:102CB0006F970E94FFD14B015C018091F50F9091BD
:102CC000F60FA091F70FB091F80FAF968CAF9DAFB4
:102CD000AEAFBFAFAF979C01AD0160914A05709157
:102CE0004B0580914C0590914D050E94FFD1639654
:102CF0006CAF7DAF8EAF9FAF639720914E05309143
:102D00004F054091500550915105A7962CAF3DAF0E
:102D10004EAF5FAFA7978091F90F9091FA0FA091F6
:102D2000FB0FB091FC0FE3968CAF9DAFAEAFBFAF82
:102D3000E397A70196016BAD7CAD8DAD9EAD0E9472
:102D40006BDB2B013C01A501940123966CAD7DAD9D
:102D50008EAD9FAD23970E946BDB9B01AC01C3013D
:102D6000B2010E9400D22B013C01A50194016BAD80
:102D70007CAD8DAD9EAD0E946BDB4B015C01A7016C
:102D8000960123966CAD7DAD8EAD9FAD23970E94CD
:102D90006BDB9B01AC01C501B4010E94FFD1A30113
:102DA00092010E947ED26B017C0120E030E0A901FB
:102DB0000E9406DB87FF0AC02BED3FE049EC50E4A0
:102DC000C701B6010E9400D26B017C01112351F0B2
:102DD0002BED3FE049EC50E4C701B6010E94FFD162
:102DE0006B017C0120E030E0A901C701B6010E941F
:102DF00006DB811128C06B962CAD3DAD4EAD5FADAD
:102E00006B9727966CAD7DAD8EAD9FAD27970E94D9
:102E100006DB811118C06F962CAD3DAD4EAD5FAD98
:102E20006F972F966CAD7DAD8EAD9FAD2F970E94A5
:102E300006DB811108C05BEDC52E5FE0D52E59EC95
:102E4000E52E50E4F52EA3962CAD3DAD4EAD5FAD15
:102E5000A397C701B6010E946BDB9B01AC010E94E6
:102E60006BDB4B015C0163962CAD3DAD4EAD5FADB0
:102E70006397CA01B9010E946BDB9B01AC01C501DC
:102E8000B4010E9400D20E9492D44B015C012FE653
:102E900032E143E85AE30E9406DB87FD53C2C501D5
:102EA000B4010E9493D30E9464D32D967FAF6EAF7E
:102EB0002D97DB01AB2B31F4E1E0F0E02D96FFAF75
:102EC000EEAF2D972D962EAD3FAD2D97B90180E039
:102ED00090E00E940ADB4B015C019B01AC01C70141
:102EE000B6010E94EDD227966CAF7DAF8EAF9FAF3B
:102EF0002797A501940163966CAD7DAD8EAD9FAD16
:102F000063970E94EDD2A3966CAF7DAF8EAF9FAF5B
:102F1000A397E3962CAD3DAD4EAD5FADE397A7967D
:102F20006CAD7DAD8EAD9FADA7970E94FFD1A50181
:102F300094010E94EDD2A7966CAF7DAF8EAF9FAF8C
:102F4000A79727962CAD3DAD4EAD5FAD2797CA0133
:102F5000B9010E946BDB20E030E040E05FE30E94BB
:102F60006BDB9B01AC0160E070E080E89FE30E94B6
:102F7000FFD163966CAF7DAF8EAF9FAF6397AF9677
:102F80008CAD9DADAEADBFADAF9789879A87AB874E
:102F9000BC87E3962CAD3DAD4EAD5FADE3972D877D
:102FA0003E874F87588B6091350270913602072E0D
:102FB000000C880B990B0E940CDB20916002309171
:102FC000610240916202509163020E946BDB2AE031
:102FD00037ED43E25CE30E946BDB6B966CAF7DAF39
:102FE0008EAF9FAF6B970E944D9A9B01AC01285307
:102FF0003F4F4F4F5F4F6F962CAF3DAF4EAF5FAF20
:103000006F974BAC5CAC6DAC7EAC22242394312C1E
:1030100049E1D42E2D964EAD5FAD2D972416350681
:1030200009F44CC10E947AB10E944D9ADC01CB0197
:103030006F962CAD3DAD4EAD5FAD6F97821B930B80
:10304000A40BB50BB7FD11C00E944D9A9B01AC01BA
:1030500028533F4F4F4F5F4F6F962CAF3DAF4EAF52
:103060005FAF6F9780E00E94DFB7DA94DD2009F44C
:103070004BC063962CAD3DAD4EAD5FAD63972396CF
:103080006CAD7DAD8EAD9FAD23970E946BDB4B0188
:103090005C0127962CAD3DAD4EAD5FAD2797B201DB
:1030A000C3010E946BDBA50194010E9400D27B0149
:1030B0008C0163962CAD3DAD4EAD5FAD6397B20113
:1030C000C3010E946BDB4B015C0127962CAD3DAD2B
:1030D0004EAD5FAD279723966CAD7DAD8EAD9FADA8
:1030E00023970E946BDB9B01AC01C501B4010E94D8
:1030F000FFD12B013C01C701D80123968CAF9DAFB6
:10310000AEAFBFAF239757C0B10180E090E00E94FF
:103110000ADB27962CAD3DAD4EAD5FAD27970E94E3
:103120006BDB4B015C010E94EAD26B017C01C501A3
:10313000B4010E9487D44B015C01A70196016BADDD
:103140007CAD8DAD9EAD0E946BDB2B013C01A501DA
:1031500094012B966CAD7DAD8EAD9FAD2B970E94EB
:103160006BDB9B01AC01C301B2010E9400D22B01B9
:103170003C01A50194016BAD7CAD8DAD9EAD0E946F
:103180006BDB4B015C01A70196012B966CAD7DAD0D
:103190008EAD9FAD2B970E946BDB9B01AC01C501EF
:1031A000B4010E94FFD123966CAF7DAF8EAF9FAF6D
:1031B000239729E1D22E9201A30167966CAD7DADD4
:1031C0008EAD9FAD67970E9400D269837A838B830F
:1031D0009C8323962CAD3DAD4EAD5FAD2397AB9652
:1031E0006CAD7DAD8EAD9FADAB970E9400D26D836F
:1031F0007E838F839887A3962CAD3DAD4EAD5FAD9A
:10320000A39769857A858B859C850E9400D2698702
:103210007A878B879C87A7962CAD3DAD4EAD5FAD71
:10322000A7976D857E858F8598890E9400D26D87CE
:103230007E878F87988B80910102882321F0CE01B1
:1032400001960E949F80C0900B1189819A81AB8169
:10325000BC8188A399A3AAA3BBA38D819E81AF81C2
:10326000B8858CA39DA3AEA3BFA389859A85AB85A2
:10327000BC8588A799A7AAA7BBA7AE01485D5F4FE9
:10328000BE016C5D7F4FCE0180960E94B16D6B9642
:10329000ECACFDAC0EAD1FAD6B979E01235F3F4FB5
:1032A000AE01485D5F4FBE016C5D7F4FCE018096E1
:1032B0000E942D603FEF231A330AACCEC0900B1151
:1032C0008091420590914305A0914405B091450538
:1032D00088A399A3AAA3BBA3809146059091470513
:1032E000A0914805B09149058CA39DA3AEA3BFA3AF
:1032F00080914A0590914B05A0914C05B0914D05E8
:1033000088A799A7AAA7BBA7AE01485D5F4FBE01DA
:103310006C5D7F4FCE0180960E94B16D6B96ECACD8
:10332000FDAC0EAD1FAD6B972EE435E0AE01485DF0
:103330005F4FBE016C5D7F4FCE0180960E942D6075
:103340000E94F1520E947F570C94B42CEDEAF4E1F4
:1033500084918F010F5F1F4F882321F00E94C25775
:10336000F801F6CFE8E3F2E084918F010F5F1F4F81
:10337000882311F40C94B42C0E94C257F801F4CFA6
:1033800080E50E94E256882329F00E9440566B0196
:103390007C0103C0C12CD12C760183E50E94E2564A
:1033A000882361F00E94805620E030E04AE754E430
:1033B0000E946BDB0E9464D36B017C010E949DB272
:1033C0000E947F578091F0109091F110A091F2101F
:1033D000B091F310C80ED91EEA1EFB1E0E944D9A32
:1033E000DC01CB018C199D09AE09BF09B7FD02C0F4
:1033F0000C94B42C80E00E94DFB7F0CF85E090E021
:1034000090939303809392030E949DB2D0902105E4
:1034100080E00E94A1520E94A35711E0109317026E
:1034200088E50E94B356E82E89E50E94B356082F1E
:103430008AE50E94B356F82EE11004C0011104C0C1
:10344000182705C0011102C010E001C0182F0E940A
:10345000E752111105C0E11003C0002309F440C078
:1034600020E030E040E251E46091D90F7091DA0F32
:103470008091DB0F9091DC0F0E9400D260934A058F
:1034800070934B0580934C0590934D052091F50F5B
:103490003091F60F4091F70F5091F80F0E9449D4E8
:1034A00018165CF419821A821B821C82BE016F5F9F
:1034B0007F4F8AE495E00E948F54111105C0E110FE
:1034C00003C0011107C00CC080E090E00E94318170
:1034D0001123B9F381E090E00E943181111102C003
:1034E000FF2021F082E090E00E9431810E94F95596
:1034F00080914105809317020E948A570E945EB610
:10350000D092210510929303109292030C94B42C44
:103510000E94972F0C94B42CC090ED0FD090EE0F1A
:10352000E090EF0FF090F00F88E50E94E2568111D5
:1035300009C020E030E040EF51E4C701B6010E942D
:1035400000D202C00E94805668A379A38AA39BA3DD
:10355000C090F10FD090F20FE090F30FF090F40FC5
:1035600089E50E94E256811108C020E030E0A901FF
:10357000C701B6010E9400D202C00E9480566B01B2
:103580007C0169837A838B839C834090D50F509014
:10359000D60F6090D70F7090D80F2091D10F309137
:1035A000D20F4091D30F5091D40F68A179A18AA175
:1035B0009BA10E94FFD14B015C0124EF3DEF4FEE38
:1035C00051E40E9449D487FF02C00C94B42C21E23C
:1035D00030E046E953E4C501B4010E9406DB181649
:1035E00014F40C94B42CA3019201C701B6010E94FB
:1035F000FFD16B017C012FE632E143E85AEB0E94D8
:1036000049D487FF02C00C94B42C21E230E046E993
:1036100053E4C701B6010E9406DB181614F40C949B
:10362000B42C0C94BB2C10929C030C94B42C81E011
:1036300080939C030C94B42C85E40E94E256B82E2F
:10364000811102C00E949DB203E7802E02E0902EFD
:103650008DEEC82E8FE0D82E96E8E92E93E0F92E55
:1036600000E010E0A12CD4018D914D010E94E256A2
:10367000882309F44EC0F6012081318142815381B3
:10368000C457DF4F2883CC58D040C357DF4F38830F
:10369000CD58D040C257DF4F4883CE58D040C15795
:1036A000DF4F5883CF58D0400E948056D6016D938B
:1036B0007D938D939C931397C457DF4F2881CC58EB
:1036C000D040C357DF4F3881CD58D040C257DF4F6D
:1036D0004881CE58D040C157DF4F5881CF58D04095
:1036E00003301105B1F00E94FFD19B01AC01F7013D
:1036F00060817181828193810E9400D2D7016D9394
:103700007D938D939C931397C8010E944755AA24DB
:10371000A3940F5F1F4FB4E0CB0ED11CE4E0EE0E7C
:10372000F11C0430110509F09ECFAA2019F00E9467
:10373000F95503C0B1100E945CAA0E945EB60C94B9
:10374000B42C20917411309175112637310511F484
:103750000C943B240CF0DAC02C34310509F45CC520
:103760000CF072C02831310509F4C7C2E4F52231EA
:10377000310509F40FC78CF437FF02C00C94B42C48
:10378000223031050CF4E6C12131310511F00C94E1
:10379000B42C0E9461BA0C94B42C2531310509F483
:1037A000A2C244F42431310511F00C94B42CEFE69C
:1037B000F2E056C22631310509F499C227313105AC
:1037C00011F00C94B42C40E061E080917211909162
:1037D00073110E94588362E17DE08DE993E00E94BD
:1037E0004CD50C94B42C2E31310509F4E1C2CCF443
:1037F0002A31310509F492C20CF48AC22B31310509
:1038000009F49AC22C31310511F00C94B42C40E02B
:1038100060E080917211909173110E9458830C9412
:10382000B42C2032310509F4D1C30CF412C42A326D
:10383000310509F4B1C42B34310511F00C94B42CCA
:103840000E941DAA0C94B42C2A36310509F45BC6DB
:10385000B4F52435310509F49DC6E4F4213531056C
:1038600009F482C64CF42D34310511F00C94B42CBB
:103870000E94F7A50C94B42C2235310509F486C6B4
:103880002335310511F00C94B42C81E080939B0317
:103890000C94B42C2C35310509F4CEC634F42535FE
:1038A000310509F4AEC60C94B42C2836310509F460
:1038B000B7C42936310509F4B1C50C94B42C2F36A0
:1038C000310509F4F5C484F42C36310509F45CC5DE
:1038D0000CF438C62D36310509F4E6C52E3631050F
:1038E00009F4D3C40C94B42C2137310509F454C520
:1038F0000CF44EC52237310509F427C723373105AB
:1039000011F00C94B42CE8E3F4E025C72336F1E081
:103910003F0711F40C94422C0CF073C02B3C310582
:1039200011F40C943E25BCF52C38310509F460C522
:1039300094F42837310511F40C94D8240CF4D2C730
:103940002937310511F00C94B42C10921702109203
:1039500041050C94B42C2E3B310509F4C0C534F458
:103960002B39310509F477C50C94B42C283C31056A
:1039700011F40C94DE24293C310511F00C94B42C84
:1039800064E3E62E61E1F62E03E712E074E0D72E41
:10399000D00E0C9426252C3D310511F40C940D27E6
:1039A000B4F42D3C310511F40C94C52514F40C9499
:1039B0005B252E3C310511F40C943026233D310556
:1039C00011F00C94B42CE0E9FEE10C947726223E31
:1039D000310511F40C9433273CF42D3D310511F4DD
:1039E0000C941A270C94B42C2D3251E0350711F4A5
:1039F0000C945C272F32314011F40C94FA270C946C
:103A0000B42C273F91E0390711F40C94F32B0CF000
:103A100051C0243AB1E03B0711F40C94F22AFCF4B3
:103A20002139F1E03F0711F40C94EA2A4CF42039D3
:103A3000314011F00C94B42C0E949DB20C94B42C23
:103A4000223981E0380711F40C94EE2A2A393140EA
:103A500011F00C94B42C0E9453B60C94B42C243F57
:103A6000A1E03A0711F40C94ED2BACF42C3A314060
:103A700011F00C94B42C90EEC92E93E0D92E2DEEBB
:103A8000E22E2FE0F22E35E9232E33E0332E00E034
:103A900010E00C94C52B253FF1E03F0711F40C9486
:103AA000F02B263F314011F00C94B42C0E94E172AF
:103AB0000C94B42C273E53E0350711F40C945B2C86
:103AC00044F5223593E0390711F40C94012C4CF4A1
:103AD0002835324011F00C94B42C0E94A5B20C94FD
:103AE000B42C2335E3E03E0711F40C943F2C203A2C
:103AF000334011F00C94B42C809172119091731199
:103B000021E020930E0D40E060E00E9458830C9469
:103B1000B42C2E3444E0340711F40C945E2C4CF495
:103B20002D34344011F00C94B42C0E9428A20C9433
:103B3000B42C2F3494E0390711F40C94612C203B01
:103B4000344011F00C94B42CE0907211F090731189
:103B50000C946A2C009172111091731180E50E94EF
:103B6000E256882361F00E9440566B017C01BB2421
:103B7000B394672B682B692B31F4B12C04C0B12CA2
:103B8000C12CD12C760183E50E94E256882399F05E
:103B90000E94805620E030E04AE754E40E946BDB4C
:103BA0000E9464D36B017C01B1100CC0672B682BA1
:103BB000692B41F43BC0B11005C00115110511F08E
:103BC0000C94112D83E090E09093E9108093E8101D
:103BD00081E08093AB030E949DB20E947F57C11485
:103BE000D104E104F104A1F18091F0109091F11061
:103BF000A091F210B091F310C80ED91EEA1EFB1E60
:103C00000E944D9ADC01CB018C199D09AE09BF09B8
:103C1000B7FD04C01092AB030C94B42C8091AB039D
:103C20008823C1F380E00E94DFB7EACF01151105B8
:103C300011F00C94112D83E090E09093E9108093A3
:103C4000E81081E08093AB030E949DB20E947F57F1
:103C50008091AB038823F1F280E00E94DFB7F8CFB8
:103C600084918F010F5F1F4F882321F00E94C2575C
:103C7000F801F6CF1092950F1092940F40E050E0AB
:103C8000BA018FE59DE00E9406798BE1EFE5FDE04A
:103C9000DE01159601900D928A95E1F780915D0DF8
:103CA00090915E0D9C838B838FEB92E09A83898346
:103CB00040E050E0BE016F5F7F4F8CE793E00E94D1
:103CC00010A6CE0101960E941DB7E0E6F2E08491B5
:103CD0008F010F5F1F4F882311F40C94B42C0E94A6
:103CE000C257F801F4CF0E9478850C94B42C10923E
:103CF0000F0D1092100D0C94B42C8091100D882390
:103D000019F081E080930F0D0E941DAA0C94B42C31
:103D100010920F0D0E949AAA0C94B42C8091100D51
:103D2000882311F40C94B42C83E50E94E25681118F
:103D30000C94312D0C94B42C8091100D882351F1EA
:103D4000E0E8F2E084918F010F5F1F4F882321F09C
:103D50000E94C257F801F6CF60918B0F70918C0FC3
:103D600080918D0F90918E0F4AE00E947B588FE2D8
:103D70000E94C2576091870F7091880F8091890FC0
:103D800090918A0F4AE00E947B588AE00E94C257B5
:103D90000C94B42CE2E9F2E084918F010F5F1F4F85
:103DA000882311F40C94B42C0E94C257F801F4CF6C
:103DB0008091100D882311F40C94B42C80E49DE0C4
:103DC0000E94848F80E49DE00E94EF7910920E0D96
:103DD00010920D0DE0907211F09073118091100D02
:103DE000882311F40C94B42C0E9467A51D821886B8
:103DF0001C821B828FEB92E09A8389838BE59DE086
:103E000090937B0D80937A0DF70180818F3209F0BA
:103E100068C06FE270E0C7010E9438D58C010F5F67
:103E20001F4F9E012F5F3F4F49010115110509F4F6
:103E30005EC06FE270E0C8010E9438D56C01009747
:103E400009F456C00817190708F052C05C01A01AFF
:103E5000B10AA501B801CE0180960E9461D5E0E2C9
:103E6000F0E0EC0FFD1FEA0DFB1D10828E01005EDD
:103E70001F4FD8018D918D01882319F00E94C257E0
:103E8000F8CF8AE00E94C25760917A0D70917B0D45
:103E90006115710511F06C5F7F4F21E0AE01405E4E
:103EA0005F4FCE0105960E94A47F811112C0BE0112
:103EB000605E7F4F89EC92E00E94AA5E8EE20E94D3
:103EC000C2578AE00E94C257C4010E941DB70C94D9
:103ED000B42C90927B0D80927A0D86010F5F1F4F5C
:103EE000A4CF8CE79DE090937B0D80937A0D8701A2
:103EF00060917A0D70917B0D6115710511F06C5F09
:103F00007F4F18A21BA222E0A801CE0180960E943A
:103F1000A47F811102C0F12C14C0CE0180960E94B2
:103F2000D5A48823C1F361E0CE0180960E94F87980
:103F3000009789F325EEFC0120831BA20E94328D9D
:103F4000F82ECE0180960E945D57FF2009F1E3EA2A
:103F5000F2E084917F012FEFE21AF20A882321F028
:103F60000E94C257F701F5CFD8018D918D018823AA
:103F700019F00E94C257F8CF8AE00E94C2571092EF
:103F80008B0F10928C0F10928D0F10928E0F18C005
:103F9000E1EBF2E084917F01BFEFEB1AFB0A88238B
:103FA00021F00E94C257F701F5CFF80181918F01EE
:103FB000882319F00E94C257F8CF8EE20E94C257A0
:103FC000CE0101960E941DB70C94B42C80910F0D68
:103FD00081110E949DB2E0907211F090731180E502
:103FE0000E94B356182F882319F00E947156182F7B
:103FF0008091100D882311F40C94B42C412F61E0B2
:10400000C7010E94588383E50E94E256882381F00D
:104010000E945056AB01BC0140938B0F50938C0F04
:1040200060938D0F70938E0F80E49DE00E9406795F
:1040300062E17DE08DE993E00E944CD58091100D06
:10404000882319F081E080930F0D11110C94B42C8A
:104050005BCE0E94C1A51CE3C12ED12CE12CF12C1A
:10406000A70196010E94E1DE762E672ECA01B901F2
:10407000A70196010E94E1DE6B017C01CA01B90132
:1040800028E130E040E050E00E94E1DE4B015C01BD
:10409000C9016DE671E00E94B3D18E010F5F1F4F21
:1040A0006115710599F06F927F92DF92CF929F9286
:1040B0008F929F938F937F936F9385E093E09F936D
:1040C0008F931F930F930E94D7DA26C0009789F031
:1040D0006F927F92DF92CF929F928F929F938F9356
:1040E00085EF92E09F938F931F930F930E94D7DAEF
:1040F00013C081149104A104B104B1F06F927F92B6
:10410000DF92CF929F928F9289EE92E09F938F934E
:104110001F930F930E94D7DA0FB6F894DEBF0FBE3D
:10412000CDBFE0E9FEE123C0C114D104E104F104F4
:1041300069F06F927F92DF92CF9281EE92E09F932F
:104140008F931F930F930E94D7DAE6CF6F927F92DF
:104150008DED92E09F938F931F930F930E94D7DA78
:104160000F900F900F900F900F900F90DACF8491D7
:104170007F01BFEFEB1AFB0A882321F00E94C25790
:10418000F701F5CFB80189E193E00E94AA5E8AE0C9
:104190000E94C2570C94B42C83E50E94E2568823F7
:1041A00011F40C94B42C0E946056E82E80E50E9415
:1041B000E256882341F00E9450568B0177FF02C0DF
:1041C0000C94B42C02C00DE010E0902FEAEEF5E064
:1041D00088E28E0F2491921729F031968E13FACF30
:1041E0000C94422DEDEAF4E184918F010F5F1F4F93
:1041F000882321F00E94C257F801F6CFE6E2F3E0EF
:1042000084918F010F5F1F4F882311F40C94B42CFD
:104210000E94C257F801F4CF0E949AAA0C94B42CC1
:1042200088E690E00E94E15881110C94B42C8091B2
:10423000260583FF02C00C94B42C83E50E94E2564D
:104240008823F9F00E9480560E945ED37093110477
:104250006093100480910E0490910F0484609093F9
:104260000F0480930E040E94805620E030E04AEA5A
:1042700052E40E9406DB181614F00E94F7A50E9473
:1042800080560E94D05E0C94B42C8EE40E94E256BC
:10429000882311F40C94B42C0E9450566093E410BF
:1042A0007093E5108093E6109093E7100C94B42C73
:1042B00083E50E94E256882319F00E94605601C0EF
:1042C00080E080932605E0E9FEE184918F010F5F95
:1042D0001F4F882321F00E94C257F801F6CFE3E474
:1042E000F3E084918F010F5F1F4F882321F00E941C
:1042F000C257F801F6CF809126058823A1F1B5E3D6
:10430000CB2EB3E0DB2EE12CF12C20E080912605B2
:1043100090E00E2C02C0959587950A94E2F780FFF5
:1043200017C0BB24B394B20E222319F08CE20E9472
:10433000C257F60125913491F901849189010F5FEB
:104340001F4F882321F00E94C2579801F5CF2B2DD3
:10435000FFEFEF1AFF0A32E0C30ED11C45E0E4166E
:10436000F104A1F60CC0EFE3F3E084918F010F5F3D
:104370001F4F882321F00E94C257F801F6CF8AE030
:104380000E94C2570C94B42C109218020C94B42CB6
:104390008AE493E00E94AFB783E50E94E256882347
:1043A00069F00E9460568D3320F4809368020C946B
:1043B000B42C8CE3809368020C94B42CE0E9FEE109
:1043C00084918F010F5F1F4F882321F00E94C257F5
:1043D000F801F6CF4091680250E060E070E083E5BC
:1043E00093E00E941D5E8AE00E94C2570C94B42C98
:1043F0008091260583FF02C00C94B42C83E50E94B3
:10440000E256882311F40C94B42C0E9480560E942A
:104410005ED3CB010E9463570C94B42C89E690E0E4
:104420000E94E158811111C0EAE5F3E084918F0107
:104430000F5F1F4F882321F00E94C257F801F6CF6B
:104440000E9421C48AE00E94C2571092E910109283
:10445000E8100C947D2F83E50E94E256882311F426
:104460000C94B42C0E9460568D3308F08CE380933A
:10447000EE100E944D9A6B017C012091EE1030E00D
:10448000A8EEB3E00E940DDFDC01CB018C0D9D1D79
:10449000AE1DBF1D8093EA109093EB10A093EC101B
:1044A000B093ED100C94B42C8DE690E00E94E1588E
:1044B00081110C94B42C8091260583FF02C00C94CA
:1044C000B42C83E50E94E25681110C94582D82E5AC
:1044D0000E94E25681110C94582D0C94B42C8091BA
:1044E000260583FF02C00C94B42C83E50E94E2569B
:1044F00081110C94832D82E50E94E25681110C9467
:10450000832D0C94B42C83E50E94E256882339F065
:104510000E9450568B016F3F710519F010F00FEF9C
:1045200010E080E50E94E256811106C0109313044A
:10453000009312040C94B42C0E94605681110C94C8
:10454000B42CF4CF80E50E94E256811106C010928F
:104550001304109212040C94B42C0E945056672B32
:1045600011F00C94B42CF3CF0E94AAAE0E949DB21D
:104570000E949FB7109213041092120468EE73E029
:1045800080E090E00E94DA9C0C94B42C10929B0383
:104590000C94B42C83E50E94E2568823A1F00E947B
:1045A000805620E030E04AE754E40E946BDB0E9432
:1045B00064D36093690270936A0280936B02909354
:1045C0006C020C94B42C88E50E94B35681110C94B3
:1045D0009F2D89E50E94B35681110C949F2D8AE589
:1045E0000E94B35681110C949F2D85E40E94B3560E
:1045F00081110C949F2D0E949DB20E949FB70C9434
:10460000B42C83E50E94B356882311F40C94B42C87
:104610000E94805620E030E04AE754E40E946BDBC1
:104620000E9464D36093F4107093F5108093F61099
:104630009093F7100C94B42CF3E7CF2EF2E0DF2E1A
:10464000ADEFEA2EAFE0FA2E10E0D6018D916D01AC
:104650000E94B356882309F46DC0133009F063C07B
:104660000E9480564B015C0120E030E040EA51E4BA
:104670000E9406DB87FF4EC0A501940160910910DE
:1046800070910A1080910B1090910C100E94EDD245
:104690002B013C019B01AC01609118117091191123
:1046A00080911A1190911B110E946BDB609318117D
:1046B0007093191180931A1190931B11A301920109
:1046C000609150117091511180915211909153113C
:1046D0000E946BDB609350117093511180935211C3
:1046E0009093531160913305709134058091350595
:1046F000909136050E940ADBA30192010E946BDBB8
:104700000E9464D36093330570933405809335051C
:10471000909336058092091090920A10A0920B1087
:10472000B0920C1007C00E948056F701608371831D
:10473000828393831F5FF4E0EF0EF11C143009F0C5
:1047400084CF0E94776E0C94B42C0E949DB20E947C
:104750005EB60C94B42C84918F010F5F1F4F882399
:1047600021F00E94C257F801F6CFEAE2F4E084910A
:104770008F010F5F1F4F882321F00E94C257F8015D
:10478000F6CFE3E1F4E084918F010F5F1F4F8823A0
:1047900021F00E94C257F801F6CFE3E0F4E08491E3
:1047A0008F010F5F1F4F882321F00E94C257F8012D
:1047B000F6CFE2EFF3E084918F010F5F1F4F882364
:1047C00021F00E94C257F801F6CFE1EEF3E08491A8
:1047D0008F010F5F1F4F882321F00E94C257F801FD
:1047E000F6CFE2EDF3E084918F010F5F1F4F882336
:1047F00021F00E94C257F801F6CFEDEBF3E084916F
:104800008F010F5F1F4F882321F00E94C257F801CC
:10481000F6CFE7EAF3E084918F010F5F1F4F882303
:1048200021F00E94C257F801F6CFE2E9F3E084914B
:104830008F010F5F1F4F882321F00E94C257F8019C
:10484000F6CFE5E7F3E084918F010F5F1F4F8823D8
:1048500021F00E94C257F801F6CFEDE5F3E0849114
:104860008F010F5F1F4F882311F40C94B42C0E940A
:10487000C257F801F4CF85E40E94B356882381F033
:104880000E947156882361F0E0E9FEE184918F0176
:104890000F5F1F4F882321F00E94C257F801F6CF07
:1048A00081E40E94B356882381F00E9471568823C8
:1048B00061F0EAEFF4E084918F010F5F1F4F8823CE
:1048C00021F00E94C257F801F6CF009172111091A9
:1048D0007311D8018D918D01882309F450CD0E9468
:1048E000C257F7CFE6E1F5E084918F010F5F1F4FCC
:1048F000882321F00E94C257F801F6CFEEE0F5E0E0
:1049000084918F010F5F1F4F882321F00E94C257AF
:10491000F801F6CF789B03C00BEC12E002C000ED6B
:1049200012E0F80181918F01882319F00E94C2578B
:10493000F8CF8AE00E94C257E6E0F5E084918F014B
:104940000F5F1F4F882321F00E94C257F801F6CF56
:10495000029B03C00BEC12E002C000ED12E0D80194
:104960008D918D01882319F00E94C257F8CF8AE0FB
:104970000E94C257EEEFF4E084918F010F5F1F4F4A
:10498000882321F00E94C257F801F6CF80910001E0
:1049900083FF03C00BEC12E002C000ED12E0F8014F
:1049A00081918F01882309F4EACC0E94C257F7CF86
:1049B00081E08093170280934105D6C788EC90E090
:1049C0000E94E1588111D0C784E40E94B356882325
:1049D000D1F10E94805611E020E030E0A9010E9450
:1049E00006DB811101C010E01093A20C112359F1D4
:1049F0000091940310E00E948056000F111F000FD9
:104A0000111FF801EC5AFD4F6083718382839383F9
:104A100020E030E0A901609154027091550280912C
:104A20005602909157020E9406DB81110CC080E073
:104A300090E0A0E4B0E48093540290935502A093D8
:104A40005602B09357020E946DBA8EC7D8018D915D
:104A50008D010E94B356882349F00E9480560E941F
:104A600064D3F7016083718382839383F4E0EF0E54
:104A7000F11CD012EBCF0E94005F76C744E4E42E15
:104A800041E1F42E03E712E054E0D52ED00ED80118
:104A90008D918D010E94B356882339F00E94805673
:104AA000F7016083718382839383F4E0EF0EF11C3E
:104AB000D012EDCF59C783E50E94B3568823D9F0B1
:104AC0000E948056AB01BC014093301150933111CC
:104AD0006093321170933311409328115093291130
:104AE00060932A1170932B118AE895E00E94535E1F
:104AF0008AE00E94C25780E50E94B356882399F04D
:104B00000E948056AB01BC0140933011509331118B
:104B100060933211709333118DE695E00E94535EDD
:104B20008AE00E94C25782E50E94B356882399F01A
:104B30000E948056AB01BC0140932C1150932D1163
:104B400060932E1170932F118EE495E00E94535EB6
:104B50008AE00E94C25784E50E94B356882309F474
:104B600003C70E948056AB01BC01409328115093AB
:104B7000291160932A1170932B1180E395E00E9414
:104B8000535E8AE00E94C257EFC683E50E94B35687
:104B9000882351F00E948056609324117093251150
:104BA000809326119093271184E50E94B3568823A1
:104BB00051F00E94805660931C1170931D118093D8
:104BC0001E1190931F1182E40E94B356882351F066
:104BD0000E944056609320117093211180932211FE
:104BE0009093231188E50E94B356882351F00E94C8
:104BF000805660930C1170930D1180930E11909359
:104C00000F1189E50E94B356882351F00E94805607
:104C100060931011709311118093121190931311DE
:104C20008AE50E94B356882351F00E948056609313
:104C3000141170931511809316119093171185E438
:104C40000E94B356882309F48FC60E948056609351
:104C500018117093191180931A1190931B1184C627
:104C600093E7A92E92E0B92E2DEEC22E2FE0D22E80
:104C700030EEE32E33E0F32E00E010E0D5018D910D
:104C80005D010E94B356882311F10E9480562B01CA
:104C90003C01F70120813181428153810E94FFD183
:104CA0009B01AC01D6016D917D918D919C910E94EB
:104CB00000D2F6016083718382839383D7014D9282
:104CC0005D926D927C921397C8010E9447550F5FC9
:104CD0001F4FB4E0CB0ED11CE4E0EE0EF11C03300C
:104CE000110561F60E94F9550E945EB63DC6849199
:104CF0008F010F5F1F4F882321F00E94C257F801D8
:104D0000F6CF83E50E94B356882321F00E947156A6
:104D100080930102EAEDF5E084918F010F5F1F4F50
:104D2000882321F00E94C257F801F6CF809101023A
:104D3000811103C0E6EDF5E002C0E2EDF5E08491FB
:104D40008F010F5F1F4F882321F00E94C257F80187
:104D5000F6CFEAECF5E084918F010F5F1F4F8823B7
:104D600021F00E94C257F801F6CF409152055091B0
:104D70005305609154057091550588EC95E00E94AB
:104D8000535E4091560550915705609158057091BA
:104D9000590585EC95E00E94535E40915A0550916B
:104DA0005B0560915C0570915D0582EC95E00E9469
:104DB000535EEAEBF5E084918F010F5F1F4F88236C
:104DC00021F00E94C257F801F6CF4091290250917C
:104DD0002A0260912B0270912C0288EB95E00E94D0
:104DE000535E40912D0250912E0260912F027091DE
:104DF000300285EB95E00E94535E40913102509164
:104E00003202609133027091340282EB95E00E948D
:104E1000535E8AE00E94C257A7C583E50E94E2560E
:104E2000882309F4A1C50E945056709336026093FE
:104E300035029AC58DED90E00E94E158811194C52C
:104E400083E50E94E256882309F48EC500919403FD
:104E500010E00E945056000F111FF801EE5FFD4F49
:104E60007183608381C580E50E94B356882309F46D
:104E70007BC50E9450566B017C0183E50E94E2567F
:104E8000882321F00E9450568B0102C00FEF1FEFC4
:104E9000C8010196039708F067C5D7FC65C59C2D2E
:104EA000EAEEF5E088E28E0F2491921709F45CC5D2
:104EB00031968E13F9CFF8C785E40E94E25681112E
:104EC00010C080E50E94B356882391F00E9480565E
:104ED0006093500270935102809352029093530258
:104EE00007C00E946056882361F3EDEAF4E171C0C7
:104EF00089E40E94B356882381F00E9480562CEAF0
:104F000035EC47E25EE30E946BDB60934C027093EA
:104F10004D0280934E0290934F0284E40E94B35658
:104F2000882381F00E9480562CEA35EC47E25EE34C
:104F30000E94EDD2609348027093490280934A0226
:104F400090934B02E0E9FEE184918F010F5F1F4FC8
:104F5000882321F00E94C257F801F6CF40915002F9
:104F60005091510260915202709153028AE196E091
:104F70000E94535E2CEA35EC47E25EE360914C02FE
:104F800070914D0280914E0290914F020E94EDD29D
:104F9000AB01BC0186E196E00E94385E2CEA35EC5C
:104FA00047E25EE3609148027091490280914A02B3
:104FB00090914B020E946BDBAB01BC0182E196E059
:104FC0000E94385E8AE00E94C257CEC40E94C25737
:104FD000F80184918F010F5F1F4F8111F7CF02EE0F
:104FE00012E0D8018D918D01882309F4C8C90E946F
:104FF000C257F7CF85E40E94E256882321F00E9431
:1050000050568B0102C000E010E083E40E94E2569B
:10501000882349F00E945056CA57DF4F798368832E
:10502000C658D04008C0E5E0F0E0CA57DF4FF9832A
:10503000E883C658D04085E50E94B356ED968FAF01
:10504000ED97882329F00E947156ED968FAFED976A
:1050500017FD07C0C12CD12CB6E1EB2EB3E4FB2E1B
:1050600006C0C12CD12CACE8EA2EA2E4FA2E83E5CE
:105070000E94E256882321F00E9480566B017C0139
:105080000115110511F4109294031092E910109279
:10509000E8100E944D9A4B015C01012B19F403EFBB
:1050A00012E00EC006E013E0D8018D918D01882337
:1050B00019F00E94C257F8CF8AE00E94C25754C428
:1050C000F80181918F01882319F00E94C257F8CF0F
:1050D000C701B6010E945ED3072E000C880B990B06
:1050E0000E940CDB24966FAF24972C967FAF2C97F1
:1050F00060968FAF609764969FAF64978AE00E9436
:10510000C2570E94AAAE8FE780939E1081E08093E1
:105110001802C258DF4F88829982AA82BB82CE577A
:10512000D040C857DF4F88829982AA82BB82C85874
:10513000D040A8961FAEA897F0E46896FFAF689796
:105140002CE16C962FAF6C9736E4AC963FAFAC97E2
:10515000E0961FAEE097A0961FAEA097A4961FAE54
:10516000A497E4961FAEE497EC961CAE1DAE1EAE5F
:105170001FAEEC97E8961CAE1DAE1EAE1FAEE897B4
:10518000C12CD12C7601FFE74F2E512C612C712CB4
:105190008FE790E0A0E0B0E023968CAF9DAFAEAF7C
:1051A000BFAF2397CE57DF4F188219821A821B8216
:1051B000C258D04091E0EE969FAFEE9729961FAE71
:1051C0001EAE2997212C312C00E010E080911802AE
:1051D000882309F4EFC10E944D9A6BAF7CAF8DAF6D
:1051E0009EAF80919C10882309F4CBC00E9458B1D7
:1051F00020900511309006110091071110910811AF
:105200009101A801E0966FADE097A0967FADA097C1
:10521000A4968FADA497E4969FADE4970E9406DB19
:1052200087FF0CC0E0962FAEE097A0963FAEA09708
:10523000A4960FAFA497E4961FAFE4979101A8013D
:10524000A8966FADA89768967FAD68976C968FAD5E
:105250006C97AC969FADAC970E9449D4181664F435
:10526000A8962FAEA89768963FAE68976C960FAF3A
:105270006C97AC961FAFAC97EE96AFADEE972496B9
:105280002FAD24972C963FAD2C9760964FAD60972D
:1052900064965FAD6497B101C801AA2309F455C0B3
:1052A0000E9449D418160CF06CC04BAD5CAD6DADCE
:1052B0007EAD481959096A097B09DB01CA01885882
:1052C0009341A109B109B7FD5CC023968CAD9DAD9A
:1052D000AEADBFAD239784199509A609B709B59559
:1052E000A7959795879580939E10CE57DF4F48835B
:1052F00059836A837B83C258D0402496BFAD2497DC
:10530000E096BFAFE0972C96EFAD2C97A096EFAF4D
:10531000A0976096FFAD6097A496FFAFA4976496A0
:105320002FAD6497E4962FAFE4978BAD9CADADADF8
:10533000BEADC258DF4F88839983AA83BB83CE5703
:10534000D040EE961FAEEE971CC00E9406DB87FF92
:1053500018C08BAD9CADADADBEADC258DF4F28813E
:1053600039814A815B81CE57D040821B930BA40BBD
:10537000B50BAC01BD01485853416109710977FF74
:1053800008C420E030E040EF51E424966FAD24974C
:105390002C967FAD2C9760968FAD609764969FADED
:1053A00064970E9400D29B01AC01B101C8010E9428
:1053B00049D41816E4F4EFE1F7E084918F010F5F10
:1053C0001F4F882321F00E94C257F801F6CF809129
:1053D0000E0490910F04886090930F0480930E0444
:1053E00040E060E085EF96E00E94229DBDC280E330
:1053F00098EFAFEFBFEFC857DF4F288139814A815F
:105400005B81C858D040821B930BA40BB50B2BAD0E
:105410003CAD4DAD5EAD820F931FA41FB51FB7FD10
:1054200011C00E9421C48AE00E94C2578BAD9CAD7E
:10543000ADADBEADC857DF4F88839983AA83BB83C8
:10544000C858D0408BAD9CADADADBEAD880F991F97
:10545000AA1FBB1FC258DF4F288139814A815B8157
:10546000CE57D040821B930BA40BB50B881999091A
:10547000AA09BB0981389F44A241B105E0F0E7EDDC
:10548000F6E084918F010F5F1F4F882321F00E9467
:10549000C257F801F6CF80910E0490910F048860F6
:1054A00090930F0480930E0440E060E08AEB96E056
:1054B0000E94229D59C229964EAD5FAD2997CA57C9
:1054C000DF4F88819981C658D040841795070CF02A
:1054D0006EC0EDE5F6E084918F010F5F1F4F8823CA
:1054E00021F00E94C257F801F6CFB701A60188E467
:1054F00096E00E94535E8AE00E94C257E8964CAD47
:105500005DAD6EAD7FADE89783E396E00E94535E9C
:105510008AE00E94C257EC964CAD5DAD6EAD7FAD9A
:10552000EC978EE196E00E94535E8AE00E94C2579B
:10553000ED969FADED97992381F1C0925002D092E4
:105540005102E0925202F09253022CEA35EC47E20B
:105550005EE3E8966CAD7DAD8EAD9FADE8970E94A1
:105560006BDB60934C0270934D0280934E029093DC
:105570004F022CEA35EC47E25EE3EC966CAD7DAD74
:105580008EAD9FADEC970E94EDD260934802709370
:10559000490280934A0290934B0280910E049091AD
:1055A0000F04886090930F0480930E04DDC10E9465
:1055B000DD470CCE80911802811102C00E94AAAE74
:1055C00080910E0490910F04886090930F04809353
:1055D0000E04CAC181E00E94FE54C6C180E00E9450
:1055E000FE54C2C186E50E94B356882321F080ECA8
:1055F00097E00E9436C783E50E94B356182F882390
:1056000019F00E947156182F83E50E94B356882323
:1056100019F0812F0E94A152FF24F394809121055B
:10562000811101C0F12C111103C0E0E9FEE11AC0A3
:10563000F110FBCFEDEAF4E184918F010F5F1F4F72
:10564000882321F00E94C257F801F6CFE1EAF7E083
:1056500084918F010F5F1F4F882339F30E94C25737
:10566000F801F6CF84918F010F5F1F4F882321F03F
:105670000E94C257F801F6CFF11003C06EED72E040
:1056800002C06AED72E083E997E00E94AA5E8AE0B8
:105690000E94C25769C1D7014D905D906D907C907A
:1056A000F801E75DFD4F2081318142815381F8018E
:1056B000EE5AFA4F60817181828193810E9400D2FB
:1056C00020E030E040E05FE30E946BDB9B01AC0137
:1056D000C301B2010E9449D418160CF061C0F80150
:1056E000E352F84F85909590A590B490F801EF5251
:1056F000F04F2081318142815381C301B2010E9468
:10570000FFD19B01AC01C501B4010E94FFD14B0147
:105710005C0120E030E040EA51EC0E9449D487FD72
:1057200043C020E030E040EA51E4C501B4010E94EA
:1057300006DB1816CCF1F6012081318142815381BC
:10574000C501B4010E94FFD19B01AC01C301B201AC
:105750000E9400D2D7016D937D938D939C931397F4
:10576000F60180829182A282B3828BAD9CAD0E94B1
:105770004755F4E0CF0ED11C0C5F1F4F24E0E20E22
:10578000F11C0C30110509F4ADCAD101A559B34083
:10579000BCAFABAFF10181911F01882351F37BCFE7
:1057A000812C912C5401A2CFEDEAF4E184918F0178
:1057B0000F5F1F4F882321F00E94C257F801F6CFD8
:1057C000E9EEF7E084918F010F5F1F4F882309F402
:1057D000CBC00E94C257F801F5CF0E94D989C4C03E
:1057E0000E941174C1C083E50E94B356882319F04A
:1057F0000E94715601C081E091E089270E94E96E04
:10580000B3C010E0113079F01230D1F0EDE1F8E0E2
:1058100084917F013FEFE31AF30A882359F10E9434
:10582000C257F701F5CFE4E2F8E084917F014FEF32
:10583000E41AF40A8823F1F00E94C257F701F5CF69
:10584000ECE2F8E084917F015FEFE51AF50A882326
:1058500021F00E94C257F701F5CFE7E0F8E084910C
:105860007F019FEFE91AF90A882321F00E94C257AD
:10587000F701F5CF1F5F133009F0C4CF75C00E9448
:10588000E6B572C0EDEAF4E184918F010F5F1F4F1E
:10589000882321F00E94C257F801F6CFE1E3F8E037
:1058A00084918F010F5F1F4F882309F45DC00E9410
:1058B000C257F801F5CF0E94C6A456C00E94779E39
:1058C00053C00E94CCA150C0113029F4D92A8D2D8B
:1058D0000E946B9B10E0F7018081982F9F7D91546F
:1058E0009630E0F40E94C257D7019D917D0190321D
:1058F00091F38FEB890F863010F4975307C08FE92F
:10590000890F863010F4975501C090531111DCCFE8
:10591000D92ED29480EFD82211E0DDCF90ED980FF0
:105920009A3000F38032F1F21FC0809174110E940E
:10593000DEA11AC0E0E9FEE184918F010F5F1F4FE5
:10594000882321F00E94C257F801F6CF60917711A9
:105950007091781180E498E00E94AA5E82E20E9431
:10596000C2578AE00E94C2571092E9101092E810C4
:105970000E94D1BAC2C280E00E94A1520E94A357E5
:1059800083E50E94B356882309F449C00E947156EA
:1059900021E0482FBE016F5F7F4FCE0180960E94AD
:1059A000B4AA6B017C019B01AC010E94D4D481118B
:1059B00031C02CEA35EC47E257E368A179A18AA10E
:1059C0009BA10E9400D2AB01BC0188E592E00E943D
:1059D000385E2CEA35EC47E257E369817A818B81A6
:1059E0009C810E9400D2AB01BC0183E592E00E9441
:1059F000385E2CEA35EC47E257E3C701B6010E9456
:105A000000D2AB01BC018EE492E00E94385E8AE0D5
:105A10000E94C2570E948A570E945EB6A5CF81E0BD
:105A2000B7CFF8018081882311F40C94E21DE0E9DE
:105A3000FEE184915F012FEFA21AB20A882321F0C0
:105A40000E94C257F501F5CFD8018D918D018823B1
:105A500019F00E94C257F8CF8AE00E94C2570C94F6
:105A6000E21D0E945056AB01BC0140938B0F509336
:105A70008C0F60938D0F70938E0F80E49DE00E94D9
:105A8000067972CF61E0802F0E9411996E2D802FD0
:105A90000E94E15DF12CB701802F0E944D990530E5
:105AA000110509F061CFF0921304E09212045CCF6B
:105AB0000E9480560E945ED370931104609310047C
:105AC00080910E0490910F04846090930F04809352
:105AD0000E040E94805620E030E04AEA52E40E9420
